{
  "contractName": "Marketplace",
  "abi": [
    {
      "anonymous": false,
      "inputs": [
        {
          "indexed": false,
          "internalType": "uint256",
          "name": "id",
          "type": "uint256"
        },
        {
          "indexed": false,
          "internalType": "string",
          "name": "name",
          "type": "string"
        },
        {
          "indexed": false,
          "internalType": "uint256",
          "name": "priceInEth",
          "type": "uint256"
        },
        {
          "indexed": false,
          "internalType": "address",
          "name": "seller",
          "type": "address"
        }
      ],
      "name": "ItemListed",
      "type": "event"
    },
    {
      "anonymous": false,
      "inputs": [
        {
          "indexed": false,
          "internalType": "uint256",
          "name": "id",
          "type": "uint256"
        },
        {
          "indexed": false,
          "internalType": "address",
          "name": "buyer",
          "type": "address"
        },
        {
          "indexed": false,
          "internalType": "uint256",
          "name": "priceInEth",
          "type": "uint256"
        }
      ],
      "name": "ItemPurchased",
      "type": "event"
    },
    {
      "inputs": [],
      "name": "itemCount",
      "outputs": [
        {
          "internalType": "uint256",
          "name": "",
          "type": "uint256"
        }
      ],
      "stateMutability": "view",
      "type": "function",
      "constant": true
    },
    {
      "inputs": [
        {
          "internalType": "uint256",
          "name": "",
          "type": "uint256"
        }
      ],
      "name": "items",
      "outputs": [
        {
          "internalType": "uint256",
          "name": "id",
          "type": "uint256"
        },
        {
          "internalType": "string",
          "name": "name",
          "type": "string"
        },
        {
          "internalType": "uint256",
          "name": "priceInEth",
          "type": "uint256"
        },
        {
          "internalType": "address payable",
          "name": "seller",
          "type": "address"
        },
        {
          "internalType": "address",
          "name": "buyer",
          "type": "address"
        },
        {
          "internalType": "bool",
          "name": "sold",
          "type": "bool"
        }
      ],
      "stateMutability": "view",
      "type": "function",
      "constant": true
    },
    {
      "inputs": [
        {
          "internalType": "string",
          "name": "_name",
          "type": "string"
        },
        {
          "internalType": "uint256",
          "name": "_priceInEth",
          "type": "uint256"
        }
      ],
      "name": "listItem",
      "outputs": [],
      "stateMutability": "nonpayable",
      "type": "function"
    },
    {
      "inputs": [
        {
          "internalType": "uint256",
          "name": "_id",
          "type": "uint256"
        }
      ],
      "name": "buyItem",
      "outputs": [],
      "stateMutability": "payable",
      "type": "function",
      "payable": true
    }
  ],
  "bytecode": "0x608060405234801561001057600080fd5b50610ecd806100206000396000f3fe60806040526004361061003f5760003560e01c80636bfb0d01146100445780638511c9371461006f578063bfb231d214610098578063e7fb74c7146100da575b600080fd5b34801561005057600080fd5b506100596100f6565b6040516100669190610aee565b60405180910390f35b34801561007b57600080fd5b50610096600480360381019061009191906107f6565b6100fc565b005b3480156100a457600080fd5b506100bf60048036038101906100ba919061084a565b6102ee565b6040516100d196959493929190610b8c565b60405180910390f35b6100f460048036038101906100ef919061084a565b6103ff565b005b60005481565b6000811161013f576040517f08c379a000000000000000000000000000000000000000000000000000000000815260040161013690610a4e565b60405180910390fd5b60008081548092919061015190610d99565b91905055506040518060c0016040528060005481526020018381526020018281526020013373ffffffffffffffffffffffffffffffffffffffff168152602001600073ffffffffffffffffffffffffffffffffffffffff1681526020016000151581525060016000805481526020019081526020016000206000820151816000015560208201518160010190805190602001906101ef9291906106d6565b506040820151816002015560608201518160030160006101000a81548173ffffffffffffffffffffffffffffffffffffffff021916908373ffffffffffffffffffffffffffffffffffffffff16021790555060808201518160040160006101000a81548173ffffffffffffffffffffffffffffffffffffffff021916908373ffffffffffffffffffffffffffffffffffffffff16021790555060a08201518160040160146101000a81548160ff0219169083151502179055509050507f16244e47af8a7d2c923faa2cab44315c0514c7aa830682bbb9cc8f0d37ad75486000548383336040516102e29493929190610b40565b60405180910390a15050565b600160205280600052604060002060009150905080600001549080600101805461031790610d67565b80601f016020809104026020016040519081016040528092919081815260200182805461034390610d67565b80156103905780601f1061036557610100808354040283529160200191610390565b820191906000526020600020905b81548152906001019060200180831161037357829003601f168201915b5050505050908060020154908060030160009054906101000a900473ffffffffffffffffffffffffffffffffffffffff16908060040160009054906101000a900473ffffffffffffffffffffffffffffffffffffffff16908060040160149054906101000a900460ff16905086565b6000600160008381526020019081526020016000209050600081600001541180156104305750600054816000015411155b61046f576040517f08c379a000000000000000000000000000000000000000000000000000000000815260040161046690610a8e565b60405180910390fd5b8060040160149054906101000a900460ff16156104c1576040517f08c379a00000000000000000000000000000000000000000000000000000000081526004016104b890610ace565b60405180910390fd5b670de0b6b3a764000081600201546104d99190610c71565b341461051a576040517f08c379a000000000000000000000000000000000000000000000000000000000815260040161051190610a6e565b60405180910390fd5b8060030160009054906101000a900473ffffffffffffffffffffffffffffffffffffffff1673ffffffffffffffffffffffffffffffffffffffff163373ffffffffffffffffffffffffffffffffffffffff1614156105ad576040517f08c379a00000000000000000000000000000000000000000000000000000000081526004016105a490610aae565b60405180910390fd5b338160040160006101000a81548173ffffffffffffffffffffffffffffffffffffffff021916908373ffffffffffffffffffffffffffffffffffffffff16021790555060018160040160146101000a81548160ff0219169083151502179055508060030160009054906101000a900473ffffffffffffffffffffffffffffffffffffffff1673ffffffffffffffffffffffffffffffffffffffff166108fc670de0b6b3a764000083600201546106639190610c71565b9081150290604051600060405180830381858888f1935050505015801561068e573d6000803e3d6000fd5b507f78a0660bbda86d17037943644187f6f1f73f2f20a3240bf4cf4a56c2a96bcf8481600001543383600201546040516106ca93929190610b09565b60405180910390a15050565b8280546106e290610d67565b90600052602060002090601f016020900481019282610704576000855561074b565b82601f1061071d57805160ff191683800117855561074b565b8280016001018555821561074b579182015b8281111561074a57825182559160200191906001019061072f565b5b509050610758919061075c565b5090565b5b8082111561077557600081600090555060010161075d565b5090565b600061078c61078784610c25565b610bf4565b9050828152602081018484840111156107a457600080fd5b6107af848285610d25565b509392505050565b600082601f8301126107c857600080fd5b81356107d8848260208601610779565b91505092915050565b6000813590506107f081610e80565b92915050565b6000806040838503121561080957600080fd5b600083013567ffffffffffffffff81111561082357600080fd5b61082f858286016107b7565b9250506020610840858286016107e1565b9150509250929050565b60006020828403121561085c57600080fd5b600061086a848285016107e1565b91505092915050565b61087c81610cdd565b82525050565b61088b81610ccb565b82525050565b61089a81610cef565b82525050565b60006108ab82610c55565b6108b58185610c60565b93506108c5818560208601610d34565b6108ce81610e6f565b840191505092915050565b60006108e6602283610c60565b91507f5072696365206d7573742062652067726561746572207468616e20302045746860008301527f65720000000000000000000000000000000000000000000000000000000000006020830152604082019050919050565b600061094c601883610c60565b91507f496e636f7272656374207061796d656e7420616d6f756e7400000000000000006000830152602082019050919050565b600061098c601383610c60565b91507f4974656d20646f6573206e6f74206578697374000000000000000000000000006000830152602082019050919050565b60006109cc602083610c60565b91507f53656c6c65722063616e6e6f7420627579207468656972206f776e206974656d6000830152602082019050919050565b6000610a0c601183610c60565b91507f4974656d20616c726561647920736f6c640000000000000000000000000000006000830152602082019050919050565b610a4881610d1b565b82525050565b60006020820190508181036000830152610a67816108d9565b9050919050565b60006020820190508181036000830152610a878161093f565b9050919050565b60006020820190508181036000830152610aa78161097f565b9050919050565b60006020820190508181036000830152610ac7816109bf565b9050919050565b60006020820190508181036000830152610ae7816109ff565b9050919050565b6000602082019050610b036000830184610a3f565b92915050565b6000606082019050610b1e6000830186610a3f565b610b2b6020830185610882565b610b386040830184610a3f565b949350505050565b6000608082019050610b556000830187610a3f565b8181036020830152610b6781866108a0565b9050610b766040830185610a3f565b610b836060830184610882565b95945050505050565b600060c082019050610ba16000830189610a3f565b8181036020830152610bb381886108a0565b9050610bc26040830187610a3f565b610bcf6060830186610873565b610bdc6080830185610882565b610be960a0830184610891565b979650505050505050565b6000604051905081810181811067ffffffffffffffff82111715610c1b57610c1a610e40565b5b8060405250919050565b600067ffffffffffffffff821115610c4057610c3f610e40565b5b601f19601f8301169050602081019050919050565b600081519050919050565b600082825260208201905092915050565b6000610c7c82610d1b565b9150610c8783610d1b565b9250817fffffffffffffffffffffffffffffffffffffffffffffffffffffffffffffffff0483118215151615610cc057610cbf610de2565b5b828202905092915050565b6000610cd682610cfb565b9050919050565b6000610ce882610cfb565b9050919050565b60008115159050919050565b600073ffffffffffffffffffffffffffffffffffffffff82169050919050565b6000819050919050565b82818337600083830152505050565b60005b83811015610d52578082015181840152602081019050610d37565b83811115610d61576000848401525b50505050565b60006002820490506001821680610d7f57607f821691505b60208210811415610d9357610d92610e11565b5b50919050565b6000610da482610d1b565b91507fffffffffffffffffffffffffffffffffffffffffffffffffffffffffffffffff821415610dd757610dd6610de2565b5b600182019050919050565b7f4e487b7100000000000000000000000000000000000000000000000000000000600052601160045260246000fd5b7f4e487b7100000000000000000000000000000000000000000000000000000000600052602260045260246000fd5b7f4e487b7100000000000000000000000000000000000000000000000000000000600052604160045260246000fd5b6000601f19601f8301169050919050565b610e8981610d1b565b8114610e9457600080fd5b5056fea26469706673582212203cc9e2b83d2f1fa1606816259412154f650a9ceaeefddde7223e40338bbacc3064736f6c63430008000033",
  "immutableReferences": {},
  "source": "// SPDX-License-Identifier: MIT\r\npragma solidity ^0.8.0;\r\n\r\ncontract Marketplace {\r\n    struct Item {\r\n        uint id;\r\n        string name;\r\n        uint priceInEth;\r\n        address payable seller;\r\n        address buyer;\r\n        bool sold;\r\n    }\r\n\r\n    uint public itemCount;\r\n    mapping(uint => Item) public items;\r\n\r\n    event ItemListed(uint id, string name, uint priceInEth, address seller);\r\n    event ItemPurchased(uint id, address buyer, uint priceInEth);\r\n\r\n    // List an item for sale\r\n    function listItem(string memory _name, uint _priceInEth) public {\r\n        require(_priceInEth > 0, \"Price must be greater than 0 Ether\");\r\n        itemCount++;\r\n        items[itemCount] = Item(itemCount, _name, _priceInEth, payable(msg.sender), address(0), false);\r\n        emit ItemListed(itemCount, _name, _priceInEth, msg.sender);\r\n    }\r\n\r\n    // Buy a listed item\r\n    function buyItem(uint _id) public payable {\r\n        Item storage item = items[_id];\r\n        require(item.id > 0 && item.id <= itemCount, \"Item does not exist\");\r\n        require(!item.sold, \"Item already sold\");\r\n        require(msg.value == item.priceInEth * 1 ether, \"Incorrect payment amount\");\r\n        require(msg.sender != item.seller, \"Seller cannot buy their own item\");\r\n\r\n        item.buyer = msg.sender;\r\n        item.sold = true;\r\n        item.seller.transfer(item.priceInEth * 1 ether);\r\n\r\n        emit ItemPurchased(item.id, msg.sender, item.priceInEth);\r\n    }\r\n}\r\n",
  "sourcePath": "C:\\Users\\sk957\\CA3\\contracts\\Marketplace.sol",
  "compiler": {
    "name": "solc",
    "version": "0.8.0+commit.c7dfd78e.Emscripten.clang"
  },
  "schemaVersion": "3.4.16",
  "updatedAt": "2024-11-28T11:40:47.719Z",
  "networkType": "ethereum",
  "devdoc": {
    "kind": "dev",
    "methods": {},
    "version": 1
  },
  "userdoc": {
    "kind": "user",
    "methods": {},
    "version": 1
  }
}